{
  "contractName": "TokenSales",
  "abi": [
    {
      "constant": true,
      "inputs": [],
      "name": "nftAddress",
      "outputs": [
        {
          "name": "",
          "type": "address"
        }
      ],
      "payable": false,
      "stateMutability": "view",
      "type": "function"
    },
    {
      "constant": true,
      "inputs": [
        {
          "name": "",
          "type": "uint256"
        }
      ],
      "name": "tokenPrice",
      "outputs": [
        {
          "name": "",
          "type": "uint256"
        }
      ],
      "payable": false,
      "stateMutability": "view",
      "type": "function"
    },
    {
      "inputs": [
        {
          "name": "_tokenAddress",
          "type": "address"
        }
      ],
      "payable": false,
      "stateMutability": "nonpayable",
      "type": "constructor"
    },
    {
      "constant": false,
      "inputs": [
        {
          "name": "_tokenId",
          "type": "uint256"
        },
        {
          "name": "_price",
          "type": "uint256"
        }
      ],
      "name": "setForSale",
      "outputs": [],
      "payable": false,
      "stateMutability": "nonpayable",
      "type": "function"
    },
    {
      "constant": false,
      "inputs": [
        {
          "name": "_tokenId",
          "type": "uint256"
        }
      ],
      "name": "purchaseToken",
      "outputs": [],
      "payable": true,
      "stateMutability": "payable",
      "type": "function"
    },
    {
      "constant": false,
      "inputs": [
        {
          "name": "tokenIds",
          "type": "uint256[]"
        }
      ],
      "name": "removeTokenOnSale",
      "outputs": [],
      "payable": false,
      "stateMutability": "nonpayable",
      "type": "function"
    }
  ],
  "bytecode": "0x608060405234801561001057600080fd5b5060405160208061093283398101806040528101908080519060200190929190505050806000806101000a81548173ffffffffffffffffffffffffffffffffffffffff021916908373ffffffffffffffffffffffffffffffffffffffff160217905550506108af806100836000396000f30060806040526004361061006d576000357c0100000000000000000000000000000000000000000000000000000000900463ffffffff16806317fcfe221461007257806350bc3605146100a95780635bf8633a1461010f578063c2db2c4214610166578063d4ddce8a14610186575b600080fd5b34801561007e57600080fd5b506100a760048036038101908080359060200190929190803590602001909291905050506101c7565b005b3480156100b557600080fd5b5061010d60048036038101908080359060200190820180359060200190808060200260200160405190810160405280939291908181526020018383602002808284378201915050505050509192919290505050610432565b005b34801561011b57600080fd5b506101246105a1565b604051808273ffffffffffffffffffffffffffffffffffffffff1673ffffffffffffffffffffffffffffffffffffffff16815260200191505060405180910390f35b610184600480360381019080803590602001909291905050506105c6565b005b34801561019257600080fd5b506101b16004803603810190808035906020019092919050505061086b565b6040518082815260200191505060405180910390f35b60008060009054906101000a900473ffffffffffffffffffffffffffffffffffffffff1673ffffffffffffffffffffffffffffffffffffffff16636352211e846040518263ffffffff167c010000000000000000000000000000000000000000000000000000000002815260040180828152602001915050602060405180830381600087803b15801561025957600080fd5b505af115801561026d573d6000803e3d6000fd5b505050506040513d602081101561028357600080fd5b810190808051906020019092919050505090506000821115156102a557600080fd5b3373ffffffffffffffffffffffffffffffffffffffff168173ffffffffffffffffffffffffffffffffffffffff161415156102df57600080fd5b6000809054906101000a900473ffffffffffffffffffffffffffffffffffffffff1673ffffffffffffffffffffffffffffffffffffffff1663e985e9c582306040518363ffffffff167c0100000000000000000000000000000000000000000000000000000000028152600401808373ffffffffffffffffffffffffffffffffffffffff1673ffffffffffffffffffffffffffffffffffffffff1681526020018273ffffffffffffffffffffffffffffffffffffffff1673ffffffffffffffffffffffffffffffffffffffff16815260200192505050602060405180830381600087803b1580156103cf57600080fd5b505af11580156103e3573d6000803e3d6000fd5b505050506040513d60208110156103f957600080fd5b8101908080519060200190929190505050151561041557600080fd5b816001600085815260200190815260200160002081905550505050565b600080600080845111151561044657600080fd5b600092505b835183101561059b57838381518110151561046257fe5b9060200190602002015191506000809054906101000a900473ffffffffffffffffffffffffffffffffffffffff1673ffffffffffffffffffffffffffffffffffffffff16636352211e836040518263ffffffff167c010000000000000000000000000000000000000000000000000000000002815260040180828152602001915050602060405180830381600087803b1580156104fe57600080fd5b505af1158015610512573d6000803e3d6000fd5b505050506040513d602081101561052857600080fd5b810190808051906020019092919050505090508073ffffffffffffffffffffffffffffffffffffffff163373ffffffffffffffffffffffffffffffffffffffff1614151561057557600080fd5b60006001600084815260200190815260200160002081905550828060010193505061044b565b50505050565b6000809054906101000a900473ffffffffffffffffffffffffffffffffffffffff1681565b600080600160008481526020019081526020016000205491506000809054906101000a900473ffffffffffffffffffffffffffffffffffffffff1673ffffffffffffffffffffffffffffffffffffffff16636352211e846040518263ffffffff167c010000000000000000000000000000000000000000000000000000000002815260040180828152602001915050602060405180830381600087803b15801561066f57600080fd5b505af1158015610683573d6000803e3d6000fd5b505050506040513d602081101561069957600080fd5b810190808051906020019092919050505090508134101515156106bb57600080fd5b8073ffffffffffffffffffffffffffffffffffffffff163373ffffffffffffffffffffffffffffffffffffffff16141515156106f657600080fd5b8073ffffffffffffffffffffffffffffffffffffffff166108fc349081150290604051600060405180830381858888f1935050505015801561073c573d6000803e3d6000fd5b506000809054906101000a900473ffffffffffffffffffffffffffffffffffffffff1673ffffffffffffffffffffffffffffffffffffffff166342842e0e8233866040518463ffffffff167c0100000000000000000000000000000000000000000000000000000000028152600401808473ffffffffffffffffffffffffffffffffffffffff1673ffffffffffffffffffffffffffffffffffffffff1681526020018373ffffffffffffffffffffffffffffffffffffffff1673ffffffffffffffffffffffffffffffffffffffff1681526020018281526020019350505050600060405180830381600087803b15801561083557600080fd5b505af1158015610849573d6000803e3d6000fd5b5050505060006001600085815260200190815260200160002081905550505050565b600160205280600052604060002060009150905054815600a165627a7a723058204360e4a6d6b625731cc2fc1dbfed65439381aada1963d56857ca58e5fa999d000029",
  "source": "pragma solidity ^0.4.24;\r\n\r\nimport \"openzeppelin-solidity/contracts/token/ERC721/ERC721Token.sol\";\r\n\r\ncontract TokenSales {\r\n\r\n  ERC721Token public nftAddress;\r\n\r\n  mapping(uint256 => uint256) public tokenPrice;\r\n\r\n  constructor(address _tokenAddress) public {\r\n    nftAddress = ERC721Token(_tokenAddress);\r\n  }\r\n\r\n  function setForSale(uint256 _tokenId, uint256 _price) public {\r\n    address tokenOwner = nftAddress.ownerOf(_tokenId);\r\n    require(_price > 0);\r\n    require(tokenOwner == msg.sender);\r\n    require(nftAddress.isApprovedForAll(tokenOwner, address(this)));\r\n    tokenPrice[_tokenId] = _price;\r\n  }\r\n\r\n  function purchaseToken(uint256 _tokenId) public payable {\r\n    uint256 price = tokenPrice[_tokenId];\r\n    address tokenSeller = nftAddress.ownerOf(_tokenId);\r\n    require(msg.value >= price);\r\n    require(msg.sender != tokenSeller);\r\n    tokenSeller.transfer(msg.value);\r\n    nftAddress.safeTransferFrom(tokenSeller, msg.sender, _tokenId);\r\n    tokenPrice[_tokenId] = 0;\r\n  }\r\n\r\n  function removeTokenOnSale(uint256[] tokenIds) public {\r\n    require(tokenIds.length > 0);\r\n\r\n    for (uint i = 0; i < tokenIds.length; i++) {\r\n      uint256 tokenId = tokenIds[i];\r\n      address tokenSeller = nftAddress.ownerOf(tokenId);\r\n      require(msg.sender == tokenSeller);\r\n      tokenPrice[tokenId] = 0;\r\n    }\r\n  }\r\n}",
  "sourcePath": "C:\\Users\\she jong shon\\Desktop\\crypto-yt-starter\\contracts\\TokenSales.sol",
  "compiler": {
    "name": "solc",
    "version": "0.4.25+commit.59dbf8f1.Emscripten.clang"
  },
  "schemaVersion": "2.0.2",
  "updatedAt": "2019-08-06T22:54:13.287Z"
}